:0300000002088F64
:0F088F00787FE4F6D8FD75A00075810702086038
:10080000E4F590C284D285D2862090037F06222010
:1008100091037F2E222092037F4F222093037F6B30
:1008200022D284C285D2862090037F142220910395
:100830007F39222092037F59222093037F7422D292
:1008400084D285C2862090037F21222091037F4499
:10085000222092037F62222093037F7B227F00224B
:100860005389CF438920C28FC28E120800EF60FAED
:100870001208008F8DD28EE4FFEFC3941074809421
:0F088000805008308FFDC28F0F80EEB2B380DB47
:00000001FF
